:020000040800F2
:10000000D00A0020C500000875210008431F000821
:1000100000000000000000000000000000000000E0
:10002000000000000000000000000000BF210008E8
:100030000000000000000000BD210008C1210008F0
:10004000D700000800000000D7000008D700000813
:10005000D7000008D7000008D7000008D700000824
:1000600000000000890A0008D7000008990A00086B
:10007000D7000008D7000008D700000800000000E3
:10008000D70000080000000000000000D7000008B2
:1000900000000000D7000008D7000008D7000008C3
:1000A00000000000D700000800000000012900083F
:1000B0000348854600F0E8FA00480047B1320008DE
:1000C000D00A00200448804704480047FEE7FEE7C6
:1000D000FEE7FEE7FEE7FEE72D220008B10000087C
:1000E00030B50B46014600202022012409E00D46D0
:1000F000D5409D4205D31D469540491B2546954058
:1001000040191546521E002DF1DC30BD10B5202AD5
:1001100004DB0846203AD040002110BD0B46D340F6
:10012000D0402024A21A91400843194610BDD2B2F3
:1001300001E00270401C491EFBD270470022F6E726
:1001400010B513460A4604461946FFF7F0FF20464D
:1001500010BD024670B54A40D30FDB0740002DD0DA
:100160004A002AD0010E140E000212020919400A98
:10017000520A8418E50104465443000A120A2E0468
:100180005043A4194219200CC543AA18120C01258A
:10019000AD03521C521912047F39240400D0521CA2
:1001A000104301D44000491EC2B20C06C0092018F9
:1001B000401C4008802A02D003E0002070BD4008A7
:1001C0004000002900DA0020184370BD420005D02D
:1001D0004200120E52428A4201DB00207047C905DC
:1001E0000818704710B500229623114600F04DF80C
:1001F00010BDC20FD207400040080BD0C10D07232D
:10020000DB01C91840020905400A1143C208400732
:1002100011437047002001467047F0B51FB40646F1
:10022000002082B005464024019100901BE0019916
:1002300022460F463046FFF769FF049A059B801A55
:10024000994110D310461946224600F02FFA361A6B
:100250008F410197224601200021009F00F026FADD
:1002600038184D4100902046641E0028DFDC019BB9
:1002700000982946324607B0F0BD002904DA401C38
:10028000490001D140084000704770B40024050CBB
:1002900005D11024000402D1002921D01124050E1B
:1002A00001D100020834050F01D10001241D850F82
:1002B00001D18000A41C002801DB4000641C00293F
:1002C00008D020252E1B0D46F540A14000D001216D
:1002D0002943084301061B1B000ADB1D02D5002031
:1002E00070BC7047DB05181880180029F8DA401C2C
:1002F0004900F5D170BC400840007047F0B5074692
:100300000846584087B0C00F049048000E46590078
:1003100040084908BC1A884105D2384631461E4675
:1003200017460B4602465800400810434CD0300D8B
:10033000039040055900400D490D0590401A029068
:10034000402872DA18030121000B090508430190C7
:1003500004980092002805D001995242002088415B
:1003600000920190029840210A1A0199009800F029
:100370009DF905460C466B4607CB00F0A7F9C0195E
:100380007141039A0E0D0023D71756401A467A4042
:10039000164344D0049A002A2DD0029A012A039AC7
:1003A00015DC1205C01A914101263605001C714169
:1003B000D20F059ED2070093019202962A46234649
:1003C00000F0A4F907B0F0BD38463146FAE716054B
:1003D000224A0F46B218C01AB74101210905001C74
:1003E0004F4100187F41114618187941E20F104320
:1003F0006D19644113E0E2076D0815436408C207F4
:100400001443039A01261205C01A91413605001CB7
:100410007141CE07400830434908C01851412A466F
:10042000234600F066F9CDE7FFE70498012240007B
:10043000C117121A00238B4104983146C417381A89
:10044000A141EEE730B40124E407634030BC55E736
:1004500030B40124E407614030BC4FE70000E0FF06
:10046000F0B51FB488B00B99099800244840099949
:10047000C00F490049080991C0070B990090490035
:1004800049080B9109990898A64608431CD00B9976
:100490000A98084318D0099801244000420D4800EA
:1004A000410D099824050003000B204309900B9887
:1004B0000003000B20430B9050181C4940180022E9
:1004C00001901446104605E0002001460DB0F0BD35
:1004D000032801DA034600E003239C46C11A0AAE52
:1004E0000AE05F0008ADED5B4F00F75B7D4300273E
:1004F000AA187C41491C5B1E6145F2DD410004AB3A
:100500005A522104120C0A43240C401C0828DFDB39
:10051000019802900099704601910090059B049A01
:100520000799069800F0F2F8D0E700000DFCFFFFF5
:10053000F0B50C465C4085B0E40FE40703944C0032
:100540000026640859009446490802460296224350
:1005500021D062460A431ED06200570D4A000E03A6
:100560002303550D012402462C492405781B1B0B3F
:10057000360B401823432643614600901C46501A10
:10058000B44103D30098401C009002E092180098F8
:100590005B41002803DA0020014605B0F0BD0020D1
:1005A000012109050746864611E064461D46141BD5
:1005B000B54106D36546521BB341744607430C430D
:1005C000A646CD0740084908284392185B410546D6
:1005D0000D43EAD11046184313D0604619465040E7
:1005E0007140084306D06046101AB34106D201227A
:1005F000002306E000220123DB0702E00122D243B0
:100600005310009874460105381C6141029C039DFB
:100610000019694100F06DF8BFE70000FD0300001C
:100620004A0009030123090B1B0519430A4B10B5A6
:10063000520D9A4202DA0020014610BD064B3433B7
:100640009A4203DC9A1AFFF761FD10BD034BD218E2
:1006500000F02CF810BD0000FF030000CDFBFFFFF1
:1006600010B5002904DB0124E40740428C412146F7
:10067000002B04DB1C460123DB075242A3419942B5
:1006800000D1904210BD0000064C0125064E05E049
:10069000E36807CC2B430C3C98471034B442F7D3A3
:1006A000FFF70AFDE03300080034000810B5202AE7
:1006B00004DB0146203A9140002010BD91402023E8
:1006C0009C1A0346E3401943904010BD10B5202A00
:1006D00006DBCB170846203A1041C1170B4306E052
:1006E0000B461341D0402024A21A914008431946DA
:1006F00010BD10B5002B08DA0024401C614192188F
:100700005B411A4301D14008400010BDF0B51FB451
:1007100082B005460C0003D0084602F03FF902E023
:1007200002F03CF920300246009021462846FFF7AF
:10073000BDFF049B059A04460F4618431143084326
:1007400014D0184610431BD0009840210A1A1846AE
:100750000599FFF7DBFC05460E46009A05990498BB
:10076000FFF7A4FF084305D0012004E020463946E6
:1007700007B0F0BD0020C11705430E432C4337439B
:1007800000990E986305401A7905E40A00220C438B
:10079000FD0A0A3002D500200146E9E701051019DB
:1007A00069410C9C0D9D00196941FFF7A2FFDFE72D
:1007B00010B50146406A426C50231A420AD1416C7E
:1007C00001225202114341640168CA681205920F66
:1007D00005D020E0C06B026B0846904710BD026A4E
:1007E000002A18D10A68120715D58A685307012212
:1007F000002B09DB4B680C24A3434B60416C1302B4
:1008000099431143416406E0416C2023194341643C
:10081000816C1143816400F0F7F910BD10B5406A96
:10082000416C402211434164816C04221143816474
:1008300000F0ECF910BD10B5406A00F0E6F910BD0B
:1008400010B5C8220249034800F0E2FA10BD0000CA
:100850002400002044030020F8B504460020009046
:10086000206881688907890F012905D10168C907B6
:100870002CD1C168090429D48168154A1026114079
:100880000125002915D18168294381601248114949
:100890000068FFF725FC00E0401E00900028FBD117
:1008A00000F0A8FC07460CE000F0A4FCC01B0228E6
:1008B00007D9606C30436064A06C2843A0640120B9
:1008C000F8BD20680068C043C007EDD10020F8BD26
:1008D0001700008040420F001C000020F0B50026E9
:1008E0004B498DB04E6030468E60CE600E614E61D9
:1008F000484D0246034604460146B700EF59761CB0
:10090000BA18F6B2B700EF59761CFB18F6B2B7006A
:10091000EF59761C3C19F6B2B700EF59761C7918DE
:10092000F6B2B700EF59761C3818F6B2C82EE4D3E9
:100930000E460746364D282110460693FFF7D0FB9A
:100940006860049028210698FFF7CAFBA860089009
:1009500028212046FFF7C4FBE8600290282130469A
:10096000FFF7BEFB0446286128213846FFF7B8FB95
:100970006861FFF737FC29680091FFF7EAFB0B215C
:10098000C943FFF723FCFFF734FC0690079120468C
:10099000FFF728FC0099FFF7DCFB0B21C943FFF7A9
:1009A00015FCFFF726FC06460F460298FFF71AFCD7
:1009B0000099FFF7CEFB0B21C943FFF707FCFFF7B8
:1009C00018FC04460D460898FFF70CFC0099FFF749
:1009D000C0FB0B21C943FFF7F9FBFFF70AFC0A90A4
:1009E00001910498FFF7FEFB0099FFF7B2FB0B2182
:1009F000C943FFF7EBFBFFF7FCFB024602A8F0C080
:100A00000A9800900B46044801F0B8FF0DB0F0BD05
:100A100000000020240000208433000830B587B097
:100A20000C4605461C216846FFF788FB60200090B5
:100A30004B212846090148436421FFF751FB0190EF
:100A4000002002900490012C10D0022C0CD1042222
:100A500069460C4800F08AFF002801D000F04AF8EF
:100A60000421084801F016F807B030BD002269469D
:100A7000044800F07BFF002801D000F03BF8002183
:100A8000EFE70000D403002010B5024800F04AFA56
:100A900010BD00009003002010B5024800F042FA9B
:100AA00010BD00008806002010B504460068054906
:100AB00040181421FFF714FB800020640248E06313
:100AC00010BD0000F8FFFDBF0000024030B5056C0E
:100AD0000124AC40C56B6C60046863604368102BF4
:100AE000036803D099600068C26030BD9A600068F6
:100AF000C16030BD70470000F8B5002504464034A1
:100B000000952278012A39D00122227003689E685C
:100B1000760767D4384F4E68BE424DD09E6A0F7834
:100B2000BA4016439E620123826B1B079A421FD074
:100B3000012A1DD0022A1BD0032A19D0042A17D05B
:100B4000052A15D0062A13D0072A11D002688B680F
:100B500056697607760FB3420AD05369DB08DB008B
:100B60005361006842690B7A5B075B0F1A4342616D
:100B70000A68102A04D0112A02D038E00220F8BDF9
:100B80001E488368102A07D0012292051343836010
:100B90000868102803D02AE00122D205F6E7194898
:100BA00017490068FFF79CFA0A21484300E0401EFD
:100BB00000900028FBD11AE0986A0E78B24090436A
:100BC00098620968102901D0112910D10B48826858
:100BD000102904D0012189058A43826007E00121A0
:100BE000C905F9E7416C2022114341640125002029
:100BF00020702846F8BD00000110000000270140C9
:100C000040420F001C0000207047704770470000F2
:100C1000F8B500250446002803D0606C002802D0F7
:100C200008E00120F8BD0020A064402108552046BE
:100C300000F0A8F8606C1022C006002870DB206865
:100C4000816849076CD4616C1301994302231943ED
:100C5000616481688907890F012905D10168C90785
:100C60000FD1C16809040CD4C16818239943A36843
:100C70001943C160206801696368890089081943C4
:100C800001612068C1683D4B1940C160A069E169FC
:100C90008003C9030843216A4B031843636B012B8C
:100CA00002D001231B0300E000231843E36818432C
:100CB0002369022B09D000231843236B666A5B006B
:100CC00018430123012E02D00AE00423F4E700298F
:100CD00027D0616C202631436164A16C1943A16463
:100CE000A16A0E46FF3EC23E02D0E66A3143084387
:100CF0002168CE680643CE600126A16B3607B1425B
:100D000013D0012911D002290FD003290DD00429B5
:100D10000BD0052909D0062907D0072905D010E0F6
:100D200028E0012109040843DAE721684E69F60842
:100D3000F6004E6121684E69278F7F077F0F3E4383
:100D40004E612168C9680E4E3140814207D10020B2
:100D5000A064606C80088000401C606408E0606CE7
:100D60000221884310436064A06C1843A0640125ED
:100D70002846F8BD606C10436064F8E71902FEFF76
:100D8000E7FF3F83F0B587B0054614216846FFF7BB
:100D9000D5F91B49286888422FD11A4988694E1510
:100DA000304388618869304005904A6930020243C7
:100DB0004A6149690027014005911F2000900320E6
:100DC0000190092069460297C00600F069F90E48B3
:100DD0000E4C81C427608020A66060600001E06046
:100DE0002020676120610948083C00F0E9F80028EC
:100DF00001D0FFF77FFEEC63656207B0F0BD000035
:100E0000002401400010024008000240900300202E
:100E1000F7B5044600680025806840073DD42646A3
:100E20004036307801280AD001273770E069012860
:100E300007D02046FFF710FD050002D02EE002206B
:100E4000FEBD606C16490840FF2101310843606413
:100E50000020A0643070E16B12488862E16B124898
:100E6000C862E16B1148086321681C200860206893
:100E700041681022114341602068C1683943C16054
:100E80002168E06B4031029B019A00F0C5F82068B0
:100E9000816804221143816000E002252846FEBDDE
:100EA000FEF1FFFFB1070008370800081D08000821
:100EB00001680A680E239A430A6001680A685208AA
:100EC00052000A600121036C0A469A40C36B5A60C3
:100ED00020304170002101700846704770B5002431
:100EE000014620314A78022A03D00421816301247B
:100EF00016E0026813680E25AB431360026813689E
:100F00005B085B0013600122056C1346AB40C56BA8
:100F10006B604A7000220A70416B002900D088473C
:100F2000204670BDF0B4C16B0D6801680C680422E6
:100F3000066C1346B3402B420DD063070BD50B68EC
:100F40009B0602D40B6893430B60016C8A40C16B13
:100F50004A60C16A19E00227B74002462F400123C8
:100F60002032002F15D0A70713D50C68A40604D48F
:100F70000C680A25AC430C605370036C0221994045
:100F8000C36B596000211170816A002916D0F0BC32
:100F900008470827B7402F4210D024070ED50C6809
:100FA0000E25AC430C60046C1946A140C46B616013
:100FB0008363537000211170016BE6E7F0BC70474A
:100FC00070B5040024D00220214620310D4648701F
:100FD000226811680F48A3680140606826691843B9
:100FE000E3683343184363691843A3691843E3690B
:100FF0001843084310602046FFF756FD0020A0620A
:10100000E06220636063A06301216970287070BD95
:10101000012070BD0FC0FFFFF8B504468C4620309C
:1010200001780025012909D00126067041780027A2
:10103000012905D0077002252846F8BD0220F8BD19
:1010400002214170A76320680168490849000160D6
:1010500061462046FFF73AFDE06A002820680168F3
:1010600002D00E22114306E00A22114301602068DB
:1010700001680422914301602068016831430160E6
:10108000DAE731B500F0B6F8009C0546601C00D0E8
:10109000641C00F0AFF8401BA042FAD338BD00003A
:1010A000F8B500238DE001249C40A44622407DD069
:1010B0004C68022C01D0122C0CD1DC08A40027189B
:1010C0003C6A5D07ED0E0F26AE40B4430E69AE409C
:1010D00026433E6205685E000324B4400F79A543B1
:1010E000BF07BF0FB7402F4307604D68012D05D0E4
:1010F000022D03D0112D01D0122D0ED18568CF689D
:10110000A543B7402F43876047686546AF430D79D5
:10111000ED06ED0F9D403D434560C568A5438C68D5
:10112000B4402C43C4604C68E40049D5284CA56900
:1011300001263543A561A4699D0834400094254CDF
:10114000AD002F19BC689D072E0F0F25B540AC438D
:101150000925ED06A84201D100250FE01E4DA84249
:1011600001D101250AE01D4DA84201D1022505E06B
:101170001B4DA84201D1032500E00525B5402543BC
:10118000BD60184C25684E689543F60300D515439D
:10119000256065684E689543B60300D515436560C4
:1011A000A5684E689543F60202D500E008E01543B5
:1011B000A560E5684E689543B60200D51543E56025
:1011C0005B1C0A681446DC4000D06CE7F8BD0000E8
:1011D00000100240000001400004004800080048E0
:1011E000000C004800040140002A01D081617047D2
:1011F00081627047014800687047000018000020B5
:1012000002480168491C0160704700001800002076
:1012100010B506480168102211430160002000F05B
:1012200007F800F017F8002010BD00000020024071
:1012300010B5044600F03AF97D21C900FEF750FFD1
:1012400000F030FB00222146501E00F021F8002063
:1012500010BD000008B50848816901221143816171
:10126000816911400091C26901040A43C261C069E9
:101270000840009008BD000000100240C106C90EE1
:1012800001208840014908607047000000E100E04B
:1012900010B500F071FF10BDF8B505460068354C7B
:1012A000C00352D5E0690026C00007D4E1692004DC
:1012B0000143E161E1690140012600912E48016886
:1012C000C90510D40168821511430160FFF792FF30
:1012D000074604E0FFF78EFFC01B642824D8264889
:1012E0000068C005F6D5206A03273F02384020D0A9
:1012F0006968394081421CD0206A226AB8430121C2
:1013000009040A432262226A8A4322622062C007D9
:101310000FD0FFF76FFF009008E0FFF76BFF009919
:10132000411A1648814201D90320F8BD206A80077E
:10133000F3D5206A6968B84308432062002E04D0C0
:10134000E169012000078143E1612878C00705D0E9
:10135000206BA968800880000843206328788006F5
:1013600005D5206B10218843E968084320630020DD
:10137000F8BD00000010024000700040881300001B
:10138000F8B5054644480E460068C007C00FB04295
:101390000AD24148016849084900314301600068A8
:1013A000C007C00FB0425CD128783C4C800705D5FF
:1013B0006068F0218843A968084360602878C00706
:1013C0003FD06868012813D02168022813D089070C
:1013D000002946DA61688908890001436160FFF7E6
:1013E00009FF6968074601290DD0022917D024E0BA
:1013F00021688903ECE78901EAE7FFF7FBFEC11BDF
:101400002748814217D860680007800F0128F4D16F
:1014100017E0FFF7EFFEC11B214881420BD860683F
:101420000007800F0228F4D10BE0FFF7E3FEC11B99
:101430001B48814201D90320F8BD60680007800F76
:10144000F3D115480168C907C90FB1420BD901682A
:1014500049084900314301600068C007C00FB0422D
:1014600001D00120F8BD2878400706D56068072123
:1014700009028843E9680843606000F02DF861685C
:10148000084A0906090F515CC84007490860002056
:10149000FFF7CEFE0020F8BD002002400010024001
:1014A000881300006C3300081C000020014800680D
:1014B000704700001C000020044805490068496886
:1014C000044A4905490F515CC84070471C00002080
:1014D000001002407C33000810B512A30FCB88B077
:1014E0006C460FC413A30FCB0FC416494A680C20D7
:1014F000134603401448042B0FD0082B0DD1930240
:101500001B0F6C46E45CC96A04AB0907090F595C00
:10151000D20304D5FEF7E4FD604308B010BD0B48CC
:101520006043FAE702030405060708090A0B0C0DDD
:101530000E0F10100102030405060708090A0B0C20
:101540000D0E0F100010024000127A0000093D003D
:10155000FEB504460078D04DC00747D06868000744
:10156000800F012807D068680007800F022809D182
:101570006868C00306D52868800337D560680028EE
:101580007ED033E0012062680004012A11D081007E
:10159000002A01D0052A10D02A6882432A602868D0
:1015A000884328606068002814D0FFF723FE0646B1
:1015B0000CE0296801432960F4E72A680A432A609D
:1015C000F7E7FFF717FE801B64286FD828688003B1
:1015D000F7D50BE0FFF70EFE064604E0FFF70AFE24
:1015E000801B6428F1D828688003F7D4207801266E
:1015F000800700283BDA68680007800F07D068681A
:101600000007800F022809D16868C00306D4286843
:10161000800715D5E068012832D111E0E068002884
:10162000286815D030432860FFF7E4FD074604E042
:10163000FFF7E0FDC01B0228C7D828688007F7D550
:101640002868F82188432169C900084328600EE012
:10165000400840002860FFF7CDFD074604E0FFF793
:10166000C9FDC01B0228B0D828688007F7D42078AD
:10167000000724D5E0690028686A10D0304300E0F4
:1016800008E16862FFF7B6FD074604E0FFF7B2FD28
:10169000C01B022899D8686A8007F7D50FE0400878
:1016A00040006862FFF7A6FD074605E09DE0FFF7F2
:1016B000A1FDC01B022888D8686A8007F7D420786B
:1016C00004274007002860DA00200190E869C00084
:1016D00008D4E969B8060143E961E96901400120DC
:1016E000009101906D480168C90511D40168821507
:1016F00011430160FFF77EFD009005E0FFF77AFDE2
:101700000099401A642870D864480068C005F5D56F
:10171000A06801280AD0002801D0052810D0286A26
:10172000400840002862286AB84301E0286A304334
:101730002862A068002812D0FFF75CFD00900AE044
:10174000286A38432862F1E7FFF754FD0099411AEF
:101750005348814249D8286A8007F5D50DE0FFF744
:1017600049FD009006E0FFF745FD0099411A4C48FD
:1017700081423AD8286A8007F5D40198002804D01D
:10178000E969012000078143E9612078C00635D569
:10179000606901280CD0401D686B23D03843686312
:1017A000686B400840006863FFF724FD064622E0AE
:1017B000686B38436863686B30436863FFF71AFDF2
:1017C000064604E0FFF716FD801B02285BD8686B15
:1017D0008007F7D5686BF8218843A169C9000843E1
:1017E00068630BE0B8436863F4E74CE0FFF702FD81
:1017F000801B022847D8686B8007F7D4206A00282E
:1018000046D069680907890F022943D001263606A8
:101810000228286805D0B0432860FFF7EBFC044697
:1018200033E0B0432860FFF7E5FC074604E0FFF72C
:10183000E1FCC01B022826D828688001F7D4E86A9A
:10184000E16A000900010843E862616AA06A08438E
:1018500069683D2212049143084368602868304358
:101860002860FFF7C7FC044604E0FFF7C3FC001B39
:10187000022808D828688001F7D509E0FFF7BAFCEC
:10188000001B022801D90320FEBD28688001F5D481
:101890000020FEBD0120FEBD00100240007000408F
:1018A00088130000094910B5401E884201D9012063
:1018B00010BD074C60610321081F00F05DFC002093
:1018C000A06107202061002010BD0000FFFFFF0085
:1018D00000E000E070B502462032137F012B1BD0E0
:1018E0000123137702245477046865687026B54392
:1018F0006560046865680E68354365600468A568BE
:101900008026B543A5600068846849680C438460FC
:1019100053770020107770BD022070BD10B586B0DF
:10192000044614216846FEF709FC0E4920688842E7
:1019300015D10D48426949130A4342614069084084
:101940000590C0200090022001900020029003909A
:101950000120049009206946C006FFF7A1FB06B0EC
:1019600010BD00000004004000100240F8B506461B
:1019700004462036307F0D4601280DD001203077F7
:10198000022070770427002A08D0042A16D0082ADB
:101990002AD00C2A4DD137E00220F8BD206800F093
:1019A000BBFC20688169082211438161206881693C
:1019B000B9438161206881692A6912E0206800F0DA
:1019C000E7FC206882690121C9020A43826120681C
:1019D00081690122920291438161206881692A69AB
:1019E00012021143816124E0206800F00BFD2068A1
:1019F000C26908210A43C2612068C169B943C16153
:101A00002068C1692A6912E0206800F037FD20686B
:101A1000C1690122D2021143C1612068C26901215A
:101A200089028A43C2612068C1692A69120211438E
:101A3000C1610120707700203077F8BD70B50400D7
:101A400005D025462035687F002802D006E0012019
:101A500070BD00202877204600F00AF80220687741
:101A6000211D206800F010FC01206877002070BD67
:101A700008B500680549884207D10548C2690221B6
:101A80000A43C261C0690840009008BD00040040DC
:101A90000010024010B504460068012200F030FC3E
:101AA0000A482168814205D00948814202D009488C
:101AB000814204D1486C0122D2031043486420685B
:101AC0000168012211430160002010BD002C01407B
:101AD000004401400048014030B50446006800223F
:101AE00000F00EFC144A134821689310814205D07F
:101AF0001248814202D0124881420AD1086A10423B
:101B000007D1086A184204D1486C0125ED03A843A7
:101B100048642068016A114206D1016A194203D162
:101B200001684908490001600120203460770020E5
:101B300030BD0000002C01401111000000440140A4
:101B40000048014070B5044660300546407A2128BF
:101B50000FD12068816809060BD5816880229143E6
:101B60008160206E002801D0FFF7A2F9204600F026
:101B700093FDA87A22280FD12068816849060BD5E9
:101B80008168402291438160606E002801D0FFF798
:101B90008FF9204600F064FD002070BD7047000002
:101BA000F8B503680446D96918680D072D0F07D1E9
:101BB0008A0605D5820603D5204600F076FDF8BDDD
:101BC0009A68002D64D0D507ED0FFF262136064018
:101BD0002E435DD0CE0706D0C60504D501261E6271
:101BE000E36E3343E3668F0702230426002F06DAF1
:101BF000D70704D027683B62E76E3743E7664F0795
:101C000006D5D20704D022681662E26E1A43E26655
:101C10000A0709D5202202402A4305D0236808225A
:101C20001A62E36E1343E366E26E002AC7D08906A8
:101C300004D5800602D5204600F037FDE06E00078F
:101C400003D42068806840061CD5204600F008FDBB
:101C500020688168490611D58168402291438160DE
:101C6000606E00280AD012494163606EFFF736F9B2
:101C70000028A4D0606E416B8847F8BD2046FFF76E
:101C80008DFFF8BD2046FFF789FF0020E066F8BD14
:101C90000A0605D5020603D5204600F0CDFDF8BDA5
:101CA0004906FCD54006FAD5204600F0E8FCF8BD10
:101CB000B925000870B5040005D025466035687A5E
:101CC000002802D006E0012070BD002028722046C6
:101CD00000F026F82420687220680168490849004D
:101CE0000160204600F01EFD0128EDD0606A00284A
:101CF00002D0204600F0F2FB206841680122D202A7
:101D00009143416020688168082291438160206886
:101D10000168012211430160204600F044FC70BDBF
:101D200070B586B0064614216846FEF707FA2349C7
:101D30003068884240D122498A69012080030243E9
:101D40008A618A69024005924A69C00002434A6179
:101D500049690025014003200591400200900220BE
:101D60000190032003900120049009200295694608
:101D7000C006FFF795F91348134C21C42560A560F0
:101D8000E56025618020656160600F48083CFFF7D1
:101D900017F9002801D0FEF7ADFE0C4801680215C6
:101DA000114301607466002211461B206662FFF732
:101DB0006FFA1B20FFF762FA06B070BD00380140D1
:101DC0000010024058000240880600200000014038
:101DD000F8B5054604466035A87A202841D1002987
:101DE0000BD0002A09D00123A0681B03984206D11A
:101DF0002069002803D1C80701D00120F8BD287A46
:101E000001282ED001202872582061650253002637
:101E1000E6662220A872616E13488862616E1348DC
:101E2000C862616E12480863606E13464663676D50
:101E300021683A462431606EFFF7EEF82E72206872
:101E40000168FF220132114301602068816801228C
:101E50001143816020688168402211438160002025
:101E6000F8BD0220F8BD000017260008572600081C
:101E7000CD25000870477047FFB50646044660361A
:101E8000707A83B00D46202858D1002D0CD00598CB
:101E9000002809D00120A1680003814207D12069F0
:101EA000002804D1E80702D0012007B0F0BD307A45
:101EB000012843D0012030720020E066212070729A
:101EC000FFF798F901902746403705983882059822
:101ED000788218E0788A401E788206980090002266
:101EE00080212046019B00F0DAFC002818D1012057
:101EF000A1680003814202D12069002812D0216824
:101F0000287808856D1C788A0028E3D1069800900F
:101F1000002240212046019B00F0C1FC002808D08F
:101F20000320C2E728882168C005C00D0885AD1CC4
:101F3000E9E72020707200203072B6E70220B4E793
:101F40007047FEE7FEB50024284929480094019413
:101F5000029412C001250426011D046070C10461B1
:101F60004461FF2102468561C2312032C46132C220
:101F7000C5620838FEF74CFE002801D0FEF7BAFD16
:101F80000120000301900004029000946946184863
:101F9000FEF7B2FD002801D0FEF7ACFD69461448FB
:101FA0000095FEF7A9FD002801D0FEF7A3FD022051
:101FB000009069460E48FEF79FFD002801D0FEF70D
:101FC00099FD0320009069460948FEF795FD002819
:101FD00001D0FEF78FFD694605480096FEF78CFD9F
:101FE000002801D0FEF786FDFEBD00000024014060
:101FF0004403002008B50C484169012211434161A6
:10200000406910400022009011460920FFF740F976
:102010000920FFF733F9002211460B20FFF738F9AA
:102020000B20FFF72BF908BD0010024070B586B0F9
:1020300014216846FEF782F8194842690121890592
:102040000A43426142690A400592426949110A43C2
:10205000426142690A400592426949000A4342616D
:10206000406909260840F6060590012220213046E5
:10207000FFF7BAF82020009001200224002501AAD1
:1020800031C269463046FFF70BF8032001906946DC
:10209000029500940348FFF703F806B070BD0000F6
:1020A000001002400004004810B58AB000240794D4
:1020B0001C2168460894FEF741F81E481C4901603F
:1020C00001218460416004611B498461C160FFF7A4
:1020D000B5FC002801D0FEF70DFD079407A91548AF
:1020E0000894FFF7F7FB002801D0FEF703FD6020FE
:1020F00000904B20C0000190029400226946049495
:102100000C48FFF733FC002801D0FEF7F3FCFF205A
:102110002D300190042269460648FFF727FC00286D
:1021200001D0FEF7E7FC0348FFF7F8FB0AB010BD4B
:1021300000040040D4030020AF04000010B50C4898
:102140000A490160E1214902416000218160C160CA
:1021500001618161C1610C22016242614162FFF74C
:10216000A9FD002801D0FEF7C5FC10BD00380140D4
:1021700018060020704700008307FF22DB0E9A40FC
:102180008907090E994000280BDA0007000F08386C
:10219000830808489B001818C36993430B43C36125
:1021A0007047830804489B001B1818689043084335
:1021B0001860704700ED00E000E400E070477047F1
:1021C00010B5FFF71DF810BD70B594B0302168460A
:1021D000FDF7B4FF002401250F941220059500900F
:1021E00010200E9410941394049006900D940520E2
:1021F0001294C0040C94039502260A901194089638
:1022000009940B946846FFF7A3F907200C90A802E5
:102210000F900D960E9401210CA8FFF7B1F810A8AD
:1022200010951294FFF738F814B070BD1348016888
:102230000122114301604168114A11404160016867
:10224000104A11400160016801229204914301602B
:1022500041683F22120491434160C16A09090901A2
:10226000C162016BFF22143291430163416B490843
:102270004900416300218160704700000010024066
:102280000CB8FF08FFFFF6FE70B50268174B184E3A
:10229000984201D0B04203D17024A2434C6822433B
:1022A000144C154D984208D0B04206D0134EB0429F
:1022B00003D0A04201D0A84204D103263602B24383
:1022C000CE6832438026B2434E69324302608A6848
:1022D000C2620A688262984203D0A04201D0A8423A
:1022E00001D1096901630121416170BD002C0140E8
:1022F000000400400044014000480140002000402C
:1023000010B50123046A8B409C430462036A8A402F
:102310001343036210BD0000F0B5026A5208520078
:102320000262056A436882697024A24392080C68BD
:1023300092001443022295438A68134E2A43114D9A
:10234000A84204D0B04202D0104FB84206D10827AC
:10235000BA43CF681743042297433A46A84204D0B1
:10236000B04202D0094DA84206D103252D02AB434D
:102370004D691D438B692B43436084614968416308
:102380000262F0BD002C01400044014000480140C1
:1023900070B5026A10239A430262046A4368826934
:1023A00073252D02AA430D682D0215432022944364
:1023B0008A6812012243104CA04208D11446CA6810
:1023C0008026B443120122434024A24305E00B4C73
:1023D000A04202D00A4CA04208D10324A402A34385
:1023E0004C69A4001C438B699B00234343608561B7
:1023F00049688163026270BD002C014000440140C5
:102400000048014070B5026AFF2301339A4302621B
:10241000046A4368C2697025AA4392080D68920055
:1024200015430122520294438A6812022243104C3F
:10243000A04207D1C414A243CC682402224306154B
:10244000B24305E00B4CA04202D00B4CA04208D195
:1024500003242403A3434C6924011C438B691B01FF
:1024600023434360C5614968C163026270BD0000D7
:10247000002C0140004401400048014030B5026A90
:1024800001231B039A430262056A4268C3697324ED
:102490002402A3430C6824021C4301235B039D43D5
:1024A0008B681B032B430A4DA84205D0094DA84257
:1024B00002D0094DA84205D10125AD03AA434D69BB
:1024C000AD012A434260C46149680164036230BDC2
:1024D000002C0140004401400048014010B5818CAF
:1024E000C90707D001684A6801235B049A43836ADD
:1024F0001A434A60818C890707D501684A6801231D
:102500001B049A43C36A1A434A60818C490707D562
:1025100001684A6801239B049A43036B1A434A608B
:10252000818C090707D501684A680123DB039A43B8
:10253000436B1A434A60818CC90607D502689168CB
:1025400001231B039943836B19439160818C890696
:1025500007D501688A6801235B039A43C36B1A435A
:102560008A60818C490612D503685A6801210905E1
:10257000046C8A4322435A60026C8A4207D1026883
:10258000516803235B059943436C19435160818C67
:10259000090607D501684A680123DB04806C9A4369
:1025A00002434A6010BD0021C166202260304272A1
:1025B000827201720846704710B5406A00220146D7
:1025C00040314A834A82FFF7E9FA10BD70B5446A88
:1025D00025466035687A0026212808D12068806861
:1025E000000604D552200653204600F055F8A87A7C
:1025F000222808D120688068400604D55A20065356
:10260000204600F02DF8E06E10210843E0662046D9
:10261000FFF7C4FA70BD10B501460968406A096841
:10262000890615D400225A210A5201680A68FF233C
:1026300001339A430A6001688A68520852008A602E
:1026400001688A6840239A438A6020226A210A54DA
:10265000FFF710FC10BD10B5406AFFF70CFC10BD71
:1026600001680A68FF2321339A430A6001688A6877
:10267000520852008A60202160308172704710B584
:1026800001680A6840239A430A60202269210A549B
:10269000FFF756FC002010BD01680A68C0239A436A
:1026A0000A60202160304172704770B502464032A6
:1026B00003466033948B9D7A0168222D05D088698A
:1026C000082210438861022070BD898C012685682C
:1026D0003603B54202D10569002D0BD02140446D6F
:1026E000651C45652170518B491E0904090C5183F5
:1026F00007D015E0456D21402980416D891C416559
:10270000F1E701680A68FF242134A2430A600168E6
:102710008A68520852008A6020219972FFF7AAFB4A
:10272000002070BDF8B504462369A268E6691A4323
:10273000636910213343002026681A433368054635
:10274000394F3B401343336023685A6803263603EE
:10275000B243E66832435A60236AA26926681A4384
:10276000B3680B273F02BB431343B3602F4A126B7E
:102770009207920F06D0012A08D0022A08D0032A15
:1027800007D101E0002104E0022102E0042100E081
:1027900008210122E369D203934224D100290CD0FD
:1027A00002290DD0042913D0082917D001250109C9
:1027B00009010007400F084332E0FEF77DFE09E003
:1027C00061681B4A48088018FDF78AFC80B2EEE772
:1027D000FEF782FE616840004A08F4E76168012262
:1027E00048081204EFE7002908D0022909D004297B
:1027F0000BD008290ED001252846F8BDFEF75CFE57
:1028000005E061680B4A480806E0FEF765FE61686E
:102810004A0801E0616848088018FDF761FC80B251
:102820002168C860E8E70000F369FFFF001002407C
:102830000024F40000127A006921095C212901D0EA
:102840000220704702464032518A002912D00123EB
:1028500081681B03994202D10169002915D0C16C1E
:102860004B1CC364006809780185508A401E508261
:102870000020704701680A6880239A430A60006854
:102880000168402211430160F2E7C16C03680988C6
:10289000C905C90D1985C16C891CC164E5E7FFB57F
:1028A00081B017460E4604460A9D1DE0681C1BD0E9
:1028B000002D05D0FEF79EFC0499401AA84213D9BA
:1028C00020680168FF22A13291430160206881687D
:1028D000490849008160202060346072A0720020A5
:1028E0002072032005B0F0BD2068C16930468843DE
:1028F00004D00020B842D9D00020F3E70120F9E746
:1029000010B5034800F01AF80148FFF749F910BD67
:10291000180600200122074910B552028818FFF757
:1029200057FA05480268136810210B4313600068CA
:10293000016210BD180400201806002010B50068C0
:10294000C069C043C00614D40A4C10202168086234
:102950002046FFF7F7F8606E0068406801225202D7
:102960000549101A4880012008702046091DFFF70C
:102970002FFA10BD18060020140400200FB410B563
:1029800003A9044B044A029800F0E8F810BC08BC04
:1029900004B0184795320008200000202021020CC6
:1029A00001D010211046020A01D010460839020950
:1029B00001D01046091F820801D01046891E420826
:1029C00001D0881E7047081A704702E008C8121F1D
:1029D00008C1002AFAD170477047002001E001C108
:1029E000121F002AFBD17047F0B51FB486B00998BA
:1029F000089A030D0021024314D05148514A181877
:102A0000504305141198012810981AD0281A401C18
:102A100000264D4F4D49009601910490002812DA8E
:102A2000444211E01198012449A3012801D11098D2
:102A3000C1430698119A84600360C26041600BB084
:102A4000F0BD4042E4E70446210500203F4A001C57
:102A500051410391029012E0E00707D032463B4615
:102A600001990098FDF7FCFC0191009032463B462D
:102A700010461946FDF7F4FC06460F466410002C7C
:102A8000EAD10498039B0028029A0999089806DA6B
:102A9000FDF7E6FC019B009AFDF7E2FC05E0FDF77F
:102AA00047FD019B009AFDF743FD04460E460022B8
:102AB000284BFDF7D5FD03D80020C043014607E0B1
:102AC0000022254B20463146FDF718FCFDF7A8FDF6
:102AD000102409E0002C0ADB0A220023FDF79DFBED
:102AE000079B30321A55641E02460A43F2D1112266
:102AF000641C079B121B1C19119B012B03D0012383
:102B000008430ED10AE0084304D0112010900020A1
:102B1000119077E71098151A6D1E0BE010988242FD
:102B200002DD00236D1C03E0824201DA00236D1EEA
:102B3000002BEED0069811998260C16030C07EE70C
:102B400001FCFFFF104D0000000014400000F03FAA
:102B5000300000000000F0430000E03FFFB597B0F8
:102B60000646002518E2252877D100242746FD498E
:102B7000049400E00443761C32780120203A90400F
:102B80000842F7D130782A280ED002223078014648
:102B90003039092916D804990A2359433039401885
:102BA0001443761C0490F1E7189802C80491189019
:102BB000002904DA01204003044348420490022023
:102BC0000443761C30782E2814D1042004437078F6
:102BD000761C2A2809D11898761C80C8189009E01C
:102BE0000A214F43303FC719761C307801463039EF
:102BF0000929F5D930786C2810D006DC4C281AD079
:102C000068280ED06A2817D104E0742813D07A28D7
:102C100012D110E00120400504430CE00121090518
:102C200001E0032109050C437178814203D10120A1
:102C300000052418761C761C3078119066280BD07D
:102C400013DC58287DD009DC00287BD04528F6D03D
:102C50004628F4D047281AD1A5E118E0632835D0DA
:102C6000642870D0652812D19DE170286CD008DCF2
:102C70006728F1D069287BD06E280DD06F2806D147
:102C8000BAE073282ED0752871D0782859D01A9AB6
:102C9000199990476D1C7EE16002400F022809D00F
:102CA00003280DD00428189801680DD00D60001D70
:102CB000189070E11898EA1701680D604A60F6E70D
:102CC000189801680D80F2E70D70F0E718986A46D1
:102CD00001781172001D18900020507202A8009017
:102CE000012005E0189802C8189000200091C04308
:102CF00061070DD5002101E00199491C0191B942FC
:102D000012DA8142F8DB009A515C0029F4D10BE021
:102D1000002101E00199491C01918142FADB019AED
:102D20000099895C0029F5D1019904981A9B471AEA
:102D300021463846199A00F097FA0199401945182A
:102D40000BE04FE02CE113E04EE000980099007892
:102D5000491C00911A9A199990470198401E0190B8
:102D6000401CF2D1214638461A9B199A10E137E0EF
:102D70000A200021009001916002410F022907D032
:102D8000189A01CA1892C2179446032908D00AE07B
:102D90001898C01DC108C90005C91891944607E0DC
:102DA00000B2C2179446042902D140B2C1178C4622
:102DB00000226146944506DA0A46002140429141CC
:102DC0008C462D2102E0210504D52B216A46117382
:102DD000012103E0E10701D02021F7E7029155E04E
:102DE0000A200AE0102008E01020009000210420B2
:102DF00004430191082703E008200021019100907D
:102E00006002410F022907D0189A01CA18920022C5
:102E10009446032908D008E01898C01DC108C900CD
:102E200005C91891944603E080B2042900D1C0B2CC
:102E300000210291210729D51199702906D0009A05
:102E40001021019B4A401A4305D00EE040216A46FA
:102E50001173012108E06146014306D030216A4622
:102E600011731199517302210291009A0821019B5B
:102E70004A401A430AD16146014301D1610705D591
:102E800030216A46117301217F1E02911199582940
:102E900004D035A10E910DA90D910DE037A1F9E7F0
:102EA0006146019B009AFDF7B8F90E9B8C469B5C2E
:102EB0000D9A521E0D92137061460143F0D10D9888
:102EC00005A9081A20300190600703D501200004ED
:102ED000844300E001270198874201DD381A00E0B1
:102EE0000020019900904118029809180498401A8E
:102EF0000490E00306D421461A9B199A049800F026
:102F0000B3F94519002706E003A81A9AC05D19997C
:102F100090476D1C7F1C02988742F5DBE0030CD5BF
:102F200021461A9B199A049800F09EF9451904E06D
:102F30001A9A3020199990476D1C0099481E0090EC
:102F40000029F5DC08E00D980D990078491C0D91D9
:102F50001A9A199990476D1C0199481E01900029F1
:102F6000F1DC63E109280100303132333435363782
:102F700038396162636465660000000030313233C5
:102F80003435363738394142434445460000000065
:102F900000F05AF94519761C3078002800D0E2E597
:102FA00028461BB0F0BD600700D406271898C01D46
:102FB000C108C90048680A680831C30FDB071891C7
:102FC000190001D09CA108E0210501D59BA104E0D6
:102FD000E10701D09AA100E09AA1430011985B0893
:102FE000109165280CD006DC452809D046281DD054
:102FF000472841D141E0662818D067283CD13CE001
:103000000021112F01DB112000E0781C01910090BC
:1030100008A911A8FFF7E8FC139905910021119A5E
:1030200015927F1C12980197009150E00120C00773
:1030300003900120019008A9009711A8FFF7D4FC84
:10304000139A149905920022119B009212981593DD
:10305000059A0192002901D0104602E0791C40181F
:103060000190381A01D5019804E04042401E0090BA
:10307000781C0190C01B029043E0012F00DA012769
:103080000021112F01DD112000E038460191009050
:1030900008A911A8FFF7A8FC13990591119A00211E
:1030A000129815920091019721070CD40599B94205
:1030B00001DB019900E00191012904DD159A491E07
:1030C000515C302906D0B84201DA011D05DA012130
:1030D000029115E00199491EEDE7002805DC0099F1
:1030E000411800910199091A03E0019A411C91428B
:1030F00000DD01910099401A401C02900120C00798
:103100000390200706D402990198814202DB002037
:10311000C043029000206946C87707AF0121039899
:103120000337C907884224D0022011902B20129027
:10313000039800280CDA404203902D20129007E0FB
:103140000A210398FCF7CCFF30317F1E03903970C1
:103150001199481E11900029F2DC03980028EFD144
:10316000791E129808703078202108404530BF1E23
:10317000387006A8C01BC01D039010980078002866
:1031800000D00120019941180298C017091803982E
:1031900009180498401A401E0490E00306D4214602
:1031A0001A9B199A049800F05FF845191098007856
:1031B000002803D01A9A199990476D1CE00324D572
:1031C00021461A9B199A049800F04EF845191CE004
:1031D0000098002807DB00990598884203DD1598C0
:1031E000405C199901E0199930201A9A904700988B
:1031F0006D1C401C00900298401E0290002804D1D3
:103200001A9A2E20199990476D1C0199481E019019
:103210000029DDDC05E038781A9A7F1C199990475F
:103220006D1C0399481E03900029F4DC21461A9B6B
:10323000199A0498ACE600002D0000002B00000055
:103240002000000000000000F8B5044600251E46DE
:103250001746880404D405E039462020B0476D1C89
:10326000641EF9D52846F8BDFFB50446002581B097
:103270001E46C80301D5302700E02027880404D566
:1032800005E038460399B0476D1C641EF9D5284601
:1032900005B0F0BD13B5044B012269460348FEF7A3
:1032A000EBFD00981CBD0000FFFF00001806002089
:1032B000FDF7AEFFFEF788FFFEF7B8FEFEF79AFEB9
:1032C000FEF740FEFEF7F0FEFEF738FFFDF7B8FA16
:1032D000FFF720FB00211D48FEF7DCFB04211B4803
:1032E000FEF7D8FB7D25ED002846FDF7CAFE00213C
:1032F0001648FEF7F1FB2846FDF7C3FE01210A2020
:10330000FDF78CFB0926F606114C00272846FDF731
:10331000B8FE002220213046FDF766FF2846FDF763
:10332000B0FEFDF7DBFA012220213046FDF75CFFFD
:103330002078C007EAD007A0FFF720FB277062883B
:10334000084B211D0848FEF797FDDFE7D403002056
:10335000140400200D0A2072656365766965643A7D
:10336000200D0A00FFFF00001806002000000000EA
:103370000000000001020304060708090000000025
:10338000010203040A0D204144435F76616C7565B8
:10339000313D25312E33662C4144435F76616C7597
:1033A00065323D25312E33662C4144435F76616C96
:1033B0007565333D25312E33662C4144435F76617C
:1033C0006C7565343D25312E33662C4144435F7660
:1033D000616C7565353D25312E3366200A0D000080
:1033E000003400080000002024000000CA29000862
:1033F0002434000824000020AC0A0000DA29000868
:1034000033335340000000000000000000000000C3
:1034100000000000000000000000000000127A0020
:0434200000000000A8
:04000005080000B13E
:00000001FF
